:020000042A00D0
:10000000D1DC4B843410D7730D000000FFFFFFFFDD
:10001000FFFFFFFF500000005000002A24C6000030
:1000200024C6000074C6002A0000000074C6002A1E
:10003000000000000100000001000000FFFFFFFFC2
:10004000FFFFFFFFFFFFFFFFFFFFFFFFFFFFFFFFC0
:10005000D3F021E330D09FE530009FE530109FE5DD
:100060000140A0E30020A0E3010050E1042080341F
:10007000FCFFFF3A1C209FE50000A0E3000082E5A2
:1000800014D09FE514009FE510FF2FE10000042A23
:1000900074C6002A3835022A2CC3002A7406012AA5
:1000A0004D03002A7847C046640051E36529000AE1
:1000B0000000B0E31EFF2FE130B48E4A08290FD3B1
:1000C0008D4C0578130A12026B405B00E35A5340D3
:1000D0001A04120C08390904090C401C0829F0D232
:1000E000002917D000780302491E08048349000C38
:1000F00014005C40240403D55204120C4A4001E071
:100100005204120C5B041B0C0400401E0004000C83
:10011000002CEDD1D04330BC0004000C704710B46B
:10012000744A08290DD3764B047854402406E40D14
:100130001C5B120A624008390904090C401C08299A
:10014000F2D2002914D000780302491E08046D4938
:10015000000C14005C40E40702D052084A4000E062
:1001600052085B080400401E0004000C002CF0D173
:10017000D04310BC0004000C704730B4624A082918
:100180000ED3624B0578940D6C402406A40D1C59C7
:100190001202624008390904090C401C0829F1D2F6
:1001A000002914D000788305491E08045849000C22
:1001B00014005C40A40002D552004A4000E0520006
:1001C0005B000400401E0004000C002CF0D1D04362
:1001D00030BC80008008704730B44B4B8343082A02
:1001E0000ED34A480D789C0D6C402406A40D04598A
:1001F0001B026340083A1204120C491C082AF1D26F
:10020000002A14D008788105521E1004404A000CC0
:100210001C004C40A40002D55B00534000E05B0092
:1002200049000400401E0004000C002CF0D1D8430B
:1002300030BC80008008704730B4C0430004000C1C
:10024000002A0FD02C4C0D78030A00026B405B0093
:10025000E35A43401804000C521E1204120C491CAD
:10026000002AF0D1C04330BC0004000C704710B429
:10027000C0430004000C002A0BD0214B0C784440F2
:100280002406E40D1C5B000A6040521E491C002A33
:10029000F4D1C04310BC0004000C7047030030B41C
:1002A000100008290DD31B4A1D78040E6C40A400D1
:1002B00014590002604008390904090C5B1C082924
:1002C000F2D2002913D01A781206491E124B0904E3
:1002D000090C0400544002D54000584000E04000A2
:1002E00052000C00491E0904090C002CF1D130BC4D
:1002F00070470000FFFF0000DCB4002A211000005E
:10030000DCB6002A08840000FFFFFF3FDCB0002AB3
:10031000C7B93060DCB8002AB71DC10410B5264C3F
:1003200020680AF02BFD01280DD160680AF026FD37
:10033000002806D101F054F960680AF01FFD00287A
:10034000F8D01E48046010BC08BC184782B00020DA
:100350000190072101AA00F091F869460A7942202C
:10036000024301920721002000F064F8FFF7D6FF56
:1003700001F071F900F0E3FF00F0FFFC02F0E5F995
:100380000F4C200001F02DF9FBE700207047002002
:10039000704710B56421484301F023F910BC08BC34
:1003A00018477047002101604160704700200549EF
:1003B000401C8842FCDB704714C3002AE0C2002ABC
:1003C00010270000E803000010B5032801D20F2910
:1003D00003D310BC08BC00201847524A80001150BB
:1003E000514A524B525C595C514B185802F03FFA3B
:1003F00010BC08BC0120184770B50400032C12D2B1
:10040000012C02D14B4905200863494EA5007059C3
:10041000002102F0B1F9705902F0DAF9414841596E
:100420002000FFF7D1FF70BC08BC184701207047BF
:100430000120704707B582B0032803D3002005B020
:1004400008BC18473C4980000A583949032A0BD098
:100450000858012304AA03A902F040FB0128EED0AA
:1004600005B008BC002018476B469A8901920858CD
:10047000012304AA01A902F0F9FAEFE717B581B048
:10048000032804D3002004B010BC08BC18472A4934
:1004900080000B582649032B0BD00858012302A9D2
:1004A00002F038FB0128EED004B010BC08BC0020DC
:1004B00018476C462389009308580123694602F0C7
:1004C000F1FAEFE770B51500032801D2012903D92D
:1004D00070BC08BC00201847174A840000290ED0C1
:1004E00004201051124E1159305902F0F3F93059CD
:1004F000290002F0FFF970BC08BC01201847032056
:100500001051EFE710B5032803D310BC08BC00203E
:100510001847074B8000185802F0E0FB10BC08BCDD
:1005200001201847A406012AF7BC002AE8BC002ACB
:10053000DCBC002AC0148000E4C2002A70B5642428
:10054000FF4DA869C00303D570BC08BC0120184743
:10055000012002F0F5FB641EF3D270BC08BC002041
:100560001847F7480021016001610168F54A91438D
:10057000012292038918016001683F22120291430F
:100580000122D20289180160EF4941608168C90CDB
:10059000C904891C8160C168C90CC9040931C160E2
:1005A000EA494161EA4901610168EA4A114301608F
:1005B000E948026AFF2101310A430262E748026802
:1005C0000A430260BAE770B5E548816A0024C907AA
:1005D0000125002905D0016A0462816AA94381626C
:1005E00004E0416A4462816A294381624B2000022F
:1005F00002F08EFBDB48816AC90706D0016A0462FB
:10060000816A49084900816204E0416A4462816A62
:1006100029438162D448816AC90708D0016AC9099F
:10062000C9010162816A49084900816206E0416AA4
:10063000C909C9014162816A29438162CB48C16805
:1006400089088900491CC1608168C90706D0016812
:100650000460816849084900816004E041684460A1
:10066000816829438160C248816AC9070AD0016A4A
:10067000C909C9010162816A49084900816270BCE7
:1006800008BC1847416AC909C9014162816A294306
:10069000816270BC08BC184770B5B148816A2B25CF
:1006A000C9070124002905D0016A0562816AA143B6
:1006B000816204E0416A4562816A214381627D2052
:1006C000400202F025FBA748816AC90706D0016AEB
:1006D0000562816A49084900816204E0416A456215
:1006E000816A21438162A048816AC90709D0016AF1
:1006F000C909C90113310162816A4908490081624F
:1007000007E0416AC909C90113314162816A214385
:10071000816296488168CA071321002A06D00268C0
:100720000160816849084900816004E042684160D5
:100730008168214381608E48816AC9070BD0016AB4
:10074000C909C9012B310162816A490849008162E6
:1007500070BC08BC1847416AC909C9012B31416204
:10076000816A2143816270BC08BC18478148824974
:10077000086048608860C86048618861C861086234
:100780007E49086048608860C86008614861886187
:10079000C861086248628862C86208634863886307
:1007A0007748426877490A40521D426082680A4091
:1007B000521D8260C2680A40521DC26002690A402E
:1007C000521D026142690A40521D426182690A401B
:1007D000521D8261C2690A40521DC261026A0A400A
:1007E000521D0262426A0A40D21D4262826A0A4077
:1007F000521D8262C26A0A40521DC262026B0A40E6
:10080000D21D0263426B0A40921D4263826B0A4012
:10081000921D8263C26B0A40521DC26370475548E5
:100820005949086048608860C86058490860486055
:100830008860C86008615648426852490A40921D63
:10084000426082680A40921D8260C2680A40921D1E
:10085000C26002690A40921D026142690A40921D0B
:1008600042614C48016AC90AC902353101627047C8
:1008700049480F2101604949494A1160516091601E
:10088000484A116051609160D16042683D490A4018
:10089000521D426082680A40121D8260C2680A408E
:1008A000121DC26002690A40121D0261704710B534
:1008B0003D490A6A402002430A624A6A02434A6288
:1008C0003A490968394A0143116038494968014386
:1008D000516037490968364A014311603449496813
:1008E0000143516032498968014391603049C968C8
:1008F0000143D1602E490969014311612D49096AFB
:100900002C4A014311622B49496A014351622A4929
:100910000968294A014311602849096A274A0143A5
:10092000116227490968264A014311602549096A6D
:10093000244A014311622349496A0143516243E059
:100940004031900000C00F000E1003000000C000F6
:10095000001000000000100080349000C0349000AF
:100960004027900080249000C02D900040269000E9
:10097000C0229000008200000036300100383001B3
:1009800080383001F0FF000000364001003840019F
:10099000803840014000F00080385001F4810000B0
:1009A000003650010038500100249000C020900013
:1009B0000021900080209000002E9000C023900025
:1009C00000259000C0219000FA490A6802430A609D
:1009D0004A6802434A60F84A126AC3001A43F64B57
:1009E0001A62F64A1268F54B02431A60F34A5268DB
:1009F00002435A60F14A926802439A60EF4AD26811
:100A00000243DA60ED4A126902431A61EB4A526905
:100A100002435A61E94A126A02431A62E74A526A79
:100A200002435A62E54A926A02439A62E34AD26AF0
:100A30000243DA62E14A126B02431A63DF4A526BE5
:100A400002435A63DD4A926B02439A63DB4AD26BDC
:100A50000243DA63DA4A136A03431362D94A136A18
:100A600003431362136803431360D74A13680343B5
:100A70001360136A03431362D44A13680343136079
:100A8000D34AD36A0343D362D24B1A6802431A6033
:100A9000D14A926AD04C0243A262D04A146A0443FB
:100AA0001462CF4A146904431461546904435461C5
:100AB0009469044394610A6A02430A624A6A0243DF
:100AC0004A62C8490A6802430A60C74AD46A502188
:100AD0000C43D4621A6A0A431A62C4490A6A02437E
:100AE0000A62FFF743FEFFF79AFEFFF7C1FEC04917
:100AF0000A2048600868400840000122104308604E
:100B0000BC49F020886110BC08BC1847F8B54B20E0
:100B1000000202F0FDF8B84940208861B74802F0B1
:100B20000FF9B748016A012529430162016A0226CB
:100B3000B1430162B348B44F3861B44802F0E8F8F9
:100B4000B348016810242143016001680422114365
:100B50000160B0480068C00704D0FFF734FDAD491C
:100B600000200860FFF7FDFC00287ED03868204395
:100B70003860786820437860FFF78EFDA64B1868D0
:100B800020431860A5480168214301604168214362
:100B90004160816821438160C1682143C16001696E
:100BA000214301619E490A6822430A604A68224340
:100BB0004A60016A21430162804801682143016063
:100BC000416821434160816821438160C1682143BC
:100BD000C160016921430161416921434161016AA9
:100BE00021430162416A21434162816A214381625A
:100BF000C16A2143C162016B21430163416B2143FF
:100C00004163816B21438163C16B2143C1636C49A3
:100C1000096A6B4A214311628249096A814A214368
:100C200011628149096A804A214311627E49496AF9
:100C3000214351627D4909687C4A2143116063491F
:100C40000968624A214311605E4909685D4A21438F
:100C500011605D4909685C4A214311605949096A7C
:100C6000584A21431162584900E082E0096A564A15
:100C7000214311624F49096A4E4A21431162584982
:100C80000C614C618C615249CC6252490968514AED
:100C900021431160816A214381624C490C604F49B4
:100CA0000C624C626249896A614A314391626149CE
:100CB0000968614A11435F4A1160DC625F490C6058
:100CC0005F490A6A40231A430A625E4A5E4B1A620F
:100CD0005E4A136A2343136284625D48426B2A436F
:100CE00042635C4842682A434260086A0122120358
:100CF00010430862086A5210104308625649574868
:100D0000816057494161574A0021D162564981614A
:100D10005649016256490163564857490860574889
:100D2000856357495120C8602248006A2149204301
:100D300008622048406A204348625248016A2143C1
:100D4000016228480168214301602348016A214368
:100D50000162416A21434162816A214381624A48BA
:100D60000078002801D0FFF7A2FDF8BC08BC0120E4
:100D70001847F8BC08BC00201847C7E610B5194949
:100D80000A68402082430A601149CA6A8243CA62E3
:100D900010490A6882430A600F498A6A82438A625C
:100DA0000E4A116A81431162FFF70DFC10BC08BCAA
:100DB0001847000040259000C02590004021900079
:100DC000C036900080269000C026900080229000BF
:100DD0004027900080279000C0219000802B900039
:100DE00040269000002990008024900080259000EB
:100DF0004000B000C003301800002000881300003D
:100E0000802E900011080000C02790007869000033
:100E1000C02E900040319000802090000021900072
:100E2000C0209000C023900000249000002C90006F
:100E3000C02290004030900000100000002E900072
:100E4000C02F900010010000802D9000002790001E
:100E500080000028C0000028FFFEFF93000000046F
:100E600000800000800100040100FC170004203510
:100E7000C70300000500FF8080000004C0010004DB
:100E800080219000C02A9000F0C2002A10B531489D
:100E9000006802F09DFC10BC08BC184710B502F0B9
:100EA00065F810BC08BC184710B502F0AAF8002875
:100EB00007D0284C206802F08BFC02F0A2F8002832
:100EC000F8D110BC08BC18470120704710B50400C9
:100ED0006068022806D1E169606900F0BBFC20006F
:100EE00002F0CFF810BC08BC184738B5002001F05C
:100EF00092FF012000230090174918481A0001F0C2
:100F00009AFF144D286000281FD0C068002103F00C
:100F100025F91349441828680021C06803F01EF918
:100F2000201A002811DD286802F052FC2868C169E7
:100F3000002903D038BC08BC01201847C068002134
:100F400003F00CF9201A0028EDDC38BC08BC0020A6
:100F500018470000F4C2002AF8C2002ACD0E002A69
:100F600020A1070010B50124002802D00024FFF7BB
:100F70001DFA200010BC08BC184710B50024FF2142
:100F800044221B310020FFF755FA002800D101242C
:100F9000FF48FFF7E7FF002C03D010BC08BC01207E
:100FA000184710BC08BC0020184710B500240221C7
:100FB0000020FFF709FA002800D101240020FFF7E4
:100FC0001BFA02210120FFF7FFF9002800D1641C61
:100FD0000120FFF711FA200010BC08BC1847F8B533
:100FE00007000D00160000240020009039006A461A
:100FF000FFF744FA002800D1012469460878B0437D
:1010000000902A00024339000020FFF713FA00285D
:1010100000D1641C2000F8BC08BC184730B583B070
:1010200005001A240020029001900221280002AA43
:10103000FFF724FA012833D16946087A0009000134
:101040000190F0282CD1E821280001AAFFF716FA18
:10105000012825D168460079012810D0022810D037
:10106000032810D0062810D0082810D0092810D046
:101070000A2810D00B2810D00C2810D010E00E2415
:101080000EE010240CE00F240AE0122408E01324E0
:1010900006E0172404E0182402E0162400E01924D6
:1010A000200003B030BC08BC1847F8B506000D009E
:1010B0000024002000900A2201213000FFF702FAEC
:1010C000002800D10124022130006A46FFF7D6F93A
:1010D000002800D1641C684600780007000F2860D3
:1010E0002000F8BC08BC1847AA49087000207047C7
:1010F000A849002008707047F8B5050000240020BA
:101100000090A44E3078322804D02870F8BC08BC77
:1011100000201847022100206A46FFF7AFF9002897
:1011200000D12124FFF7E4FF002800D021243078EB
:1011300028702000F8BC08BC184730B583B00024E4
:10114000002002900190FF25E63570222900FFF76C
:1011500071F9002800D101242900002002AAFFF71C
:101160008DF9002800D0641C6846007A800736D5C7
:101170000521002001AAFFF781F9002800D1641C95
:10118000694608791C210840019052224F21002015
:10119000FFF750F9002800D1641C002155220800F7
:1011A000FFF748F9002800D1641CFFF7E6FE041998
:1011B00052224F210120FFF73DF9002800D1641C85
:1011C000552200210120FFF735F9002800D1641CC9
:1011D000684601791C220520FFF701FF0419002C45
:1011E00004D003B030BC08BC0120184703B030BCA9
:1011F00008BC0020184770B500240020FFF70EFF40
:101200000500002201211000FFF77CF9122D05D006
:10121000192D26D00124002C46D058E0FF25773523
:10122000852229000020FFF705F9002800D10124BC
:10123000B02229000020FFF7FDF8002800D1641C2F
:10124000C02229000020FFF7F5F8002800D1641C17
:10125000902229000020FFF7EDF80028DBD1641C64
:10126000D9E7FF256335852229000020FFF7E2F842
:10127000002800D10124B02229000020FFF7DAF86D
:10128000002800D1641CC02229000020FFF7D2F8FA
:10129000002800D1641C902229000020FFF7CAF822
:1012A0000028B8D1641CB6E75A224F210020FFF76E
:1012B000C1F8002800D101245A224F210120FFF754
:1012C000B9F8002800D1641C33483449C8600122B1
:1012D00011000020FFF716F9FF2140221B310020EA
:1012E000FFF7A8F8002800D1641C002C03D070BCC4
:1012F00008BC0120184770BC08BC0020184708B57E
:101300000020009001216A46FFF7B8F800280ED0AF
:1013100068460078C00706D02149A4220020FFF7C4
:1013200089F8002807D001B008BC0020184701B098
:1013300008BC0120184701B008BC0120184710B5AF
:1013400082B00020019032200090FFF72EFE0400B2
:10135000002001A9FFF7A9FE0419FFF70EFE0419EA
:10136000012001A9FFF7A1FE0419FFF7E6FE041909
:10137000FFF741FF041901210022080002F0C8FF15
:1013800004196846FFF7B8FE04196946087809E0B1
:10139000C05D0000B006012A090800000028900086
:1013A0000902000080498000401801994018203847
:1013B000807F02F0B5FF0419FFF7A1FF0019002894
:1013C00004D002B010BC08BC0120184702B010BC09
:1013D00008BC0020184738B5002500950024652179
:1013E00000206A46FFF74AF800282CD068460278A9
:1013F0001020024365210020FFF71CF8002826D0AA
:101400000095642100206A46FFF738F8002822D0B2
:10141000684600784206520E803264210020FFF7B1
:1014200009F800281BD000954025652100206A4658
:10143000FFF724F8002816D0684600782840800975
:1014400015D0012416E038BC08BC0120184738BC70
:1014500008BC0120184738BC08BC0120184738BC1C
:1014600008BC0120184738BC08BC0120184764207C
:10147000FEF79CFF002CD8D038BC08BC00201847D1
:1014800038B5002500950024642100206A46FEF747
:10149000F5FF002820D0684600784206520E6421ED
:1014A0000020FEF7C7FF00281AD0009540256521CF
:1014B00000206A46FEF7E2FF002815D06846007853
:1014C0002840800914D06420FEF770FF002CEED075
:1014D00038BC08BC0020184738BC08BC012018479D
:1014E00038BC08BC0120184738BC08BC012018478C
:1014F0000124EBE738B50D000024002100910228FB
:1015000001D3092418E00F2D01D90A2414E0482141
:1015100000206A46FEF7B2FF002811D06846007826
:1015200029010007000F08430206120E482100207F
:10153000FEF780FF002807D0200038BC08BC184701
:1015400038BC08BC0120184738BC08BC012018472B
:1015500038B5040000250020009007216A46FEF7F8
:101560008DFF002812D0012C14D069460878802104
:10157000084300906846027807210020FEF75AFFD2
:1015800000280DD0280038BC08BC184738BC08BC5F
:1015900001201847694608784006400E0090E9E7A8
:1015A00038BC08BC0120184728C3002A044C054950
:1015B0008C4204D200202060241D8C42FBD3704753
:1015C00074C6002A3835022AFEE770470F49012009
:1015D00088630F4908630F4908620F490860704724
:1015E000704770B5094C0025A5600121E16009F044
:1015F00043FC0A4A0A4B09F047FC09F0D7FBA168F3
:101600008142FCD3E56070BC08BC184700A0000212
:101610000000401A0038900040A000028DEDB5A0F7
:10162000F7C6A03F70B50400200004E0521E0B78FE
:10163000491C0370401C002A05D0CB07DB0FC507EF
:10164000ED0F2B43F2D1002A01D009F075F82000EC
:1016500070BC08BC184710B4FF4B00221A609A8077
:101660000120411E8C0109190901CC188101411882
:1016700009015C50C9188A80401C1E28F1DBF7491B
:10168000F74801624262C2620270826201214170C7
:1016900010BC704710B4F24AF24CD06A0023818823
:1016A000C91EA14202D3838010BC7047916A0029F1
:1016B00005D00860D06A9062D36210BC7047906217
:1016C0005062D36210BC7047F8B5E74F3868C06805
:1016D00009F054FB386801697E2009F050FB0125B0
:1016E0000024DF48016B002918D9E043C00603D16C
:1016F0003868C06809F042FBDC48065D7E2E26D0C3
:101700007D2E24D0396830060969000E09F037FBB8
:101710006D1C641CD248006B8442E6D33868C068F4
:1017200009F02CFB386801697E2009F028FB6D1C4C
:10173000A80609D1386801697E2009F020FB3868C5
:1017400001697E2009F01BFBF8BC08BC184738680B
:1017500001697D2009F013FB2020396846403006DE
:101760000969000E09F00BFBAD1CD2E710B5BC4CAB
:10177000206BC004010CBD48FEF7D1FCBB4A216BB5
:101780005054000A52185070891C216310BC08BCC8
:10179000184700210278401C002A04D0491C027816
:1017A000401C002AFAD10800704770B503001800E9
:1017B000FFF7EFFF0400AD4D0E2028702200190046
:1017C000681CFFF72FFFA649641C601C0A220863EF
:1017D0002A55FFF7CBFFFFF777FF70BC08BC18470F
:1017E00070B59F4C2169491C2161E16A00250029DF
:1017F00007D1216A00291CD0E1620A6822628D802B
:101800000D607D2821D07E2819D0E16A984B8A8806
:101810009A4207D22378002B02D02023584025700B
:10182000891D5054E06A8188491C818070BC08BCC5
:10183000184790A0FFF7B9FF70BC08BC1847FFF726
:1018400029FF257070BC08BC18470120207070BCAF
:1018500008BC1847F3B5050081B0814902980A69B0
:1018600010180861C86A002808D1086A002853D0F7
:10187000C86202680A620022828002607848C66AF2
:10188000B488B61D0298042831DD28680090010E46
:101890007D2948D00202130E7D2B44D00204120E83
:1018A0007D2A40D00006000E7D283CD07E293AD00B
:1018B0007E2B38D07E2A36D07E2834D030190422B0
:1018C0006946FFF7AFFE664A1078002805D0305D04
:1018D00020214840305500201070241D2404240C81
:1018E0002D1D0298001F029002980428CDDC029F53
:1018F0007F1E14D328787D284AD07E283DD05C49AD
:101900008C424AD256490A78002A45D020225040BB
:1019100030550020087040E056A0FFF746FF03B0A6
:10192000F0BC08BC1847032728787D2819D07E28EA
:101930000CD04F498C4219D2494A1178002914D051
:10194000202148403055002010700FE0002C04D0BA
:101950004348C06A8480FFF79DFE4149002008701B
:1019600007E03F490120087003E03055641C24045F
:10197000240C6D1C7F1ED7D2B3E7002C04D038484E
:10198000C06A8480FFF786FE35490020087007E0B2
:1019900033490120087003E03055641C2404240CF2
:1019A0006D1C7F1EA6D203B0F0BC08BC1847F8B56A
:1019B0001C252B4F7869FFF7ECFE04003548796948
:1019C0002200FFF72FFE2200324E0832944219DA2D
:1019D00031493B69402C0BDBB869FFF7DAFE0500A3
:1019E0002C48B9692A00FFF71DFE0020705509E058
:1019F0001800E8400007000F085C30552D1F641CDC
:101A00009442E7DB002030552248FFF7CEFEF8BCB9
:101A100008BC184770B504000D002800FFF7B9FE98
:101A200006002800FFF7C1FE10480D210170447028
:101A3000210A8170210CC170210E01713200290030
:101A4000401DFFF7EFFD0648761D0663FFF78EFE8B
:101A5000FFF73AFE70BC21E0D806012AA87C012AD3
:101A600030C3002A05040000E0C2002ABC84012A19
:101A7000070400004552523A2057696E646F772080
:101A80006F76657272756E206465746563746564E3
:101A90002E2E2E00BC94012A10BD002A08BC184727
:101AA00010B50520FBA1FFF7B5FF10BC08BC002056
:101AB0001847F8B50400FB492022E01D08F000FE9D
:101AC000002807D00520F8A1FFF7A4FFF8BC08BC48
:101AD0000020184726002036307A022807D2052039
:101AE000F7A1FFF797FFF8BC08BC00201847A088B3
:101AF000242807D20320F9A1FFF78CFFF8BC08BC0B
:101B000000201847FF4800254570FF4F022138008C
:101B10003970FE492022401CFFF784FDFC4C052053
:101B200060700220A070E570042020716571A571BD
:101B3000E57125726572A57202F0B2FC0300002BFC
:101B40001FD01800FFF725FE0206120EE272F148C0
:101B50001900FFF767FDE17A2C311E22481C7A54E8
:101B6000441C3D54381902F09DFC0119727A192069
:101B70000240481C7A54E849D2060AD501220A706C
:101B800008E00820E5A1FFF745FFF8BC08BC0020ED
:101B900018470D70DB4908630121C902884204D946
:101BA0000720E5A1FFF736FFFEE7FFF7DFFDFFF7B0
:101BB0008BFD0024EA4DE00040194068002801D068
:101BC00009F0DCF8641C042CF5DBF8BC08BC002030
:101BD000184710B50520E3A1FFF71CFF10BC08BC97
:101BE00000201847F0B583B005210291841D80883C
:101BF000262808D00320E1A1FFF70CFF03B0F0BCBA
:101C000008BC00201847657820002030C17886780D
:101C100009020E430779407900020743FF21193179
:101C2000601CFEF77CFADB498E4208D00298DAA1EC
:101C3000FFF7F0FE03B0F0BC08BC00201847874255
:101C400008D00298E0A1FFF7E5FE03B0F0BC08BCA5
:101C500000201847012D04D0022D07D0032D15D0E8
:101C600065E00520BFA1FFF7D5FE60E002F055FE5C
:101C7000002807D0DEA1FFF7CDFE03B0F0BC08BC02
:101C800000201847E3A0FFF790FD50E0E078A67829
:101C900061790002064320790004090608430643DF
:101CA000201DC178A47909020C4301794079090407
:101CB000000601430C43E84833008021DFA2009472
:101CC00008F06AFCE448FFF770FD0125AD02E24828
:101CD0002B008021E1A208F05FFCDF48FFF765FDE3
:101CE000E648019029006002A84200D20100019854
:101CF00008F08EFD002C17D002273D00022C00D2E8
:101D00002500019A2900300002F03BFE002807D090
:101D1000DBA1FFF77FFE03B0F0BC08BC0020184732
:101D20007619641B002CE8D1DAA0FFF73EFD764857
:101D300024210170734A01211163DC49401C02F027
:101D40005DFE002807D0DAA1FFF764FE03B0F0BC07
:101D500008BC00201847FFF709FDFFF7B5FC03B0EA
:101D6000F0BC08BC0020184710B4D74B596B89044D
:101D7000890C81420CD0012292038404A40C596B7B
:101D8000114021435963596B8904890C8142F6D172
:101D900010BC7047CD48C16810221143C160632058
:101DA00000038168C907C90F8160992000F0C8FF4E
:101DB000C54C0220A062C648FFF7D6FF0120206272
:101DC000FEE710B54F48C1780279114307D00F20C4
:101DD000C0A1FFF71FFE10BC08BC002018474A4AEC
:101DE0000C21117001210163FFF7C0FCFFF76CFCAF
:101DF000BF480068806808F0C1FFFFF7CBFF10B54F
:101E00000520BCA1FFF706FE10BC08BC0020184747
:101E100070B50300981D9988491F0A04120C817837
:101E20004478037909020C43C17809041B0619435D
:101E30000C43401D210001431143C9070BD015007D
:101E40008E4B01001800FFF7EDFB8C482A002100A3
:101E500002F07DFC02E0210002F079FC002806D0AF
:101E6000ABA1FFF7D7FD70BC08BC0020184726487F
:101E7000082101704470210A8170210CC170210E6B
:101E80000171204905200863FFF770FCFFF71CFC77
:101E9000002047E1496E76616C696420436F6D6D87
:101EA000616E640021BD002A496E76616C69642010
:101EB0006D61676963206E756D6265720000000078
:101EC000496E76616C69642070726F746F636F6CB9
:101ED0002076657273696F6E000000005061726158
:101EE0006D657465722052657175657374205061FB
:101EF000636B6574204C656E677468204572726F01
:101F00007200000030C3002ABC84012A42BD002AAE
:101F1000DC84012AE884012A89C5002A556E72658D
:101F2000636F676E697A656420666C6173682064AC
:101F30006576696365000000496E7465726E616C58
:101F4000206572726F72202D207265706C795F62ED
:101F50007566666572206F76657272756E00000038
:101F60008406012A46656174757265206E6F74205F
:101F7000636F6D70696C656420696E00496E76618F
:101F80006C6964207061636B6574206C656E677446
:101F900068000000ADDE00004750502F496E666FAC
:101FA00020636F6D6D616E64206661696C65642E7F
:101FB00020496E76616C6964204D61676963204ECB
:101FC000756D6265720000004750502F496E666F54
:101FD00020636F6D6D616E64206661696C65642E4F
:101FE00020496E76616C6964204352430000000012
:101FF0005365742061637469766520626F6F742025
:10200000706172746974696F6E206661696C656471
:102010000000000053657420616374697665206276
:102020006F6F7420706172746974696F6E2073755C
:10203000636365737366756C6C7900007A65726FA3
:102040006F75742073746172742025642C206C6524
:102050006E20256400000000FC94012A7A65726FEE
:10206000696E67206F7574202564206279746573CA
:1020700020617420612074696D650000B880012AB8
:102080005A65726F696E67206F7574206661696C3E
:10209000656400005A65726F6564206F7574207303
:1020A00075636365737366756C6C790060C3002A31
:1020B000506172746974696F6E20696E666F206614
:1020C00061696C656400000040200600C027900034
:1020D0000030000043616E6E6F742072657365742A
:1020E000206265666F726520636C6F736500000027
:1020F000E0C2002A53696D706C652077726974655F
:10210000206E6F7420616C6C6F7765640000000056
:10211000577269746520756E737563636573736652
:10212000756C000070BC08BC184710B5F94CE0781D
:10213000217908430DD00121F748C90202F081FB43
:1021400000280ED0F5A1FFF765FC10BC08BC0020EC
:1021500018470F20F5A1FFF75DFC10BC08BC00205C
:102160001847ED491E20087001202063FFF7FEFA92
:10217000FFF7AAFA10BC08BC0020184710B5811D53
:102180008088401E0404240CE3480A2202702200C6
:10219000491C401CFFF746FADE48641C0463FFF745
:1021A000E5FAFFF791FA10BC08BC0020184710B5FB
:1021B000D94912200870D749012008631520E5A1EC
:1021C000FFF728FC10BC08BC0020184770B5C47984
:1021D000D04D2879002810D0A04207D00F20E3A1CD
:1021E000FFF718FC70BC08BC00201847E8A0FFF7F8
:1021F000DCFA70BC08BC00201847200002F084F90B
:10220000002807D00720EDA1FFF704FC70BC08BC34
:10221000002018472C71C049142008700120286341
:10222000FFF7A4FAFFF750FA70BC08BC002018476B
:1022300010B5B84CE078217908430AD002F083FA4F
:1022400000280ED0E0A1FFF7E5FB10BC08BC002081
:1022500018470F20E0A1FFF7DDFB10BC08BC0020F1
:1022600018470020E0702071AB491620087001204B
:102270002063FFF77BFAFFF727FA10BC08BC0020A9
:10228000184710B5C07902F03BF9002806D0DCA150
:10229000FFF7C0FB10BC08BC002018479D49012077
:1022A00088609D4B18221A700863FFF75FFAFFF7EA
:1022B0000BFA10BC08BC0020184770B503000833A7
:1022C0008188891E0A04120CC179924CA0680128E9
:1022D00007D00F20D1A1FFF79DFB70BC08BC0020E8
:1022E000184701204002824207D90320D8A1FFF7F6
:1022F00091FB70BC08BC00201847180002F002F9DE
:10230000854A00211A230225002817D06079042865
:102310000BD0E160137050702563FFF727FAFFF7C9
:10232000D3F970BC08BC00201847E1600720D0A199
:10233000FFF770FB70BC08BC002018470120E0606C
:10234000137051702563FFF711FAFFF7BDF970BCE8
:1023500008BC0020184770B503000833C579808891
:10236000801E0204120C6B4CA068012807D00F20BD
:10237000C9A1FFF74FFB70BC08BC00201847E068FC
:10238000012807D00F20CFA1FFF744FB70BC08BC89
:10239000002018472900180002F01BF95E490222AC
:1023A0001C2300281CD0A07904280DD0012813D0AC
:1023B000022811D003280FD00720CEA1FFF72AFB57
:1023C00070BC08BC002018470720CAA1FFF722FBF9
:1023D00070BC08BC002018470B704870226304E0F2
:1023E000E5700B70002048702263FFF7BFF9FFF71C
:1023F0006BF970BC08BC00201847F0B587B0002608
:10240000C54C2068C06808F0B9FC4248406A002802
:1024100077D04049012088704C6A206848620028C3
:1024200000D18862002020603A48C069002826D088
:10243000002006900025A088002814DDB64800681A
:10244000C06808F09BFCA088471B802F00DD802718
:1024500061190698891D3A00FDF709FF0690ED19EC
:10246000A088A842EADCAD490698884203D0ACA017
:10247000FFF79BF93EE0A088801EA08002E0A088C4
:10248000801EA080A779232F26DDA01D0290A088A2
:102490000390A848049001A8059000250020019011
:1024A000A548E9004158002905D002A808F067FCBA
:1024B000012800D10126019A002A0AD09D49164818
:1024C000FFF7B0F8134801990163FFF74FF9FFF7E1
:1024D000FBF86D1C042DE1DB002E0BD1781E2228A9
:1024E00005D80C494978002912D0012F10D02000BE
:1024F000FFF7D6FA0748016A21600462406A0028A3
:1025000087D104490020887007B0F0BC08BC184788
:1025100014E1000030C3002ABC84012A45726173B3
:1025200065206661696C65640000000043616E6E41
:102530006F74206572617365207768656E206E6FB9
:10254000742070726576696F75736C79206F706531
:102550006E656400506F776572206F6666206E6FDF
:102560007420737570706F7274656400416C72656D
:10257000616479206F70656E656420696E2064699E
:1025800066666572656E74206D6F6465000000009C
:10259000416C7265616479206F70656E65642C2092
:1025A00069676E6F72696E67206F70656E20696E05
:1025B0002073616D65206D6F646500004F70656EFE
:1025C000206661696C656400436C6F7365206661A9
:1025D000696C65640000000043616E6E6F74206377
:1025E0006C6F7365207768656E206E6F74207072F3
:1025F0006576696F75736C79206F70656E656400C0
:10260000536574207365637572697479206D6F64A6
:1026100065206661696C65642E0000004E6F207352
:1026200065637572697479206D6F64652072656386
:102630006569766564206265666F72652070617297
:10264000746974696F6E207461626C6500000000CB
:10265000506172746974696F6E207461626C652078
:102660006C656E6774682065786365656465640091
:10267000556E6B6E6F776E206572726F722061633C
:1026800063657074696E6720706172746974696FD4
:102690006E207461626C65004E6F207365637572A5
:1026A000697479206D6F646520726563656976650C
:1026B00064206265666F7265206F70656E206D754F
:1026C0006C7469004E6F20706172746974696F6E0A
:1026D000207461626C65207265636569766564204B
:1026E0006265666F7265206F70656E206D756C74C3
:1026F000690000004F70656E206D756C746920660E
:1027000061696C65642C20756E6B6E6F776E2065E9
:1027100072726F7200000000E0C2002A470F0000D2
:102720004552523A2043524320696E76616C696487
:1027300000000000BC8C012A8406012A810009489F
:102740004158200008F01BFBD4E6074CFEF748FF79
:102750002068C06808F012FBFEF742FFFFF74DFE4D
:10276000F4E7000064C3002AE0C2002A002802D077
:10277000FE49006808607047F8B50C000F2824D2A5
:102780000022FB4F8300FE580DE069681825554371
:102790004959814206D118214A43F64840688018B9
:1027A000F85006E0521C002E03D1F24D29689142E8
:1027B000EBD8FD58002D08D0EF481918280002F07A
:1027C00063F9002C01D0A8682060F8BC08BC184749
:1027D0000F280CD28100E6484058002807D0E64A6E
:1027E0005158002903D00968002900D008477047D4
:1027F0000F280CD28100DE484058002807D0DE4A5E
:102800005158002903D04968002900D00847704773
:102810000F280ED28100D6484058002809D0D64A49
:102820005258002A05D09268002A02D0D34BC9180A
:10283000104770470F280ED28100CD48405800281D
:1028400009D0CD4A5258002A05D0D268002A02D0B9
:10285000CA4BC918104770470F2806D28100C448D8
:102860004058002801D0406870470020704730B4BD
:102870000F280DD28300BE48C058002808D0BE4C97
:10288000E358002B04D01B69002B01D030BC184743
:1028900030BC70470F280CD28200B5488058002801
:1028A00007D0B54B9A58002A03D05269002A00D0AD
:1028B000104770470F280CD28200AD48805800287E
:1028C00007D0AD4B9A58002A03D09269002A00D055
:1028D000104770470F280CD28200A5488058002866
:1028E00007D0A54B9A58002A03D0D269002A00D0FD
:1028F000104770470F280CD282009D48805800284E
:1029000007D09D4B9A58002A03D0126A002A00D0A3
:10291000104770470F280CD2810095484058002876
:1029200007D0954A5158002903D0496A002902D09E
:10293000084700207047002070470F280CD2810004
:102940008B484058002807D08B4A5158002903D0A3
:10295000896A002902D0084700207047002070478C
:102960000F280CD2810082484058002807D0824AA4
:102970005158002903D0C96A002902D00847012014
:102980007047012070470F280CD2810078484058CA
:10299000002807D0784A5158002903D0096B002934
:1029A00002D00847002070470020704770B50C0027
:1029B00073490F2816D283006D48C058002811D0E3
:1029C0006D4DEB58002B0DD05D6B002D1AD0436977
:1029D000002B0FD01E68002E0CD01E68A64205D119
:1029E000596807E070BC08BC0020184708331E680F
:1029F000002EF2D1002905DB08F0C3F970BC08BC39
:102A00000120184770BC08BC0020184770B50C00A6
:102A10005B490F2816D283005548C058002811D0B2
:102A2000554DEB58002B0DD09D6B002D1AD04369EE
:102A3000002B0FD01E68002E0CD01E68A64205D1B8
:102A4000596807E070BC08BC0020184708331E68AE
:102A5000002EF2D1002905DB08F093F970BC08BC08
:102A60000120184770BC08BC0020184730B40F285C
:102A700012D284003E48005900280DD03E4D2C59FA
:102A8000002C09D0E46B002C09D0002907D0002AC3
:102A900005D0A44630BC604730BC0020704730BC35
:102AA0000020704730B40F2812D2840030480059FB
:102AB00000280DD0304D2C59002C09D0246C002C4E
:102AC00009D0002907D0002A05D0A44630BC6047B1
:102AD00030BC0020704730BC0020704730B40F2855
:102AE00012D284002248005900280DD0224D2C59C2
:102AF000002C09D0646C002C09D0002907D0002AD2
:102B000005D0A44630BC604730BC0020704730BCC4
:102B10000020704730B40F2812D2840014480059A6
:102B200000280DD0144D2C59002C09D0A46C002C79
:102B300009D0002907D0002A05D0A44630BC604740
:102B400030BC0020704730BC002070470F2819D2DD
:102B5000820007488058002814D0074B9A58002A52
:102B600010D0D26C002A0DD010470000F4C3002A08
:102B70007C95012A20BE002AB895012AF495012AE5
:102B8000FFFFFFFF704730B40F280DD283005D4870
:102B9000C058002808D05C4CE358002B04D01B6DB3
:102BA000002B01D030BC184730BC704730B40F2820
:102BB0000DD283005348C058002808D0524CE35827
:102BC000002B04D05B6D002B01D030BC184730BC0B
:102BD0007047F0B40D004D490F281FD284004948BA
:102BE000005900281AD0484E3459002C16D0A66D32
:102BF000002E13D04469002C0BD02768002F08D07A
:102C00002768AF4201D1616803E008342768002FCC
:102C1000F6D1002902DBB446F0BC6047F0BC704737
:102C2000F0B40D0039490F2821D2840035480059ED
:102C300000281CD0344E3459002C18D0E66D002EDC
:102C400015D0002B13D04469002C0BD02768002F1F
:102C500008D02768AF4201D1616803E008342768D3
:102C6000002FF6D1002902DBB446F0BC6047F0BC6F
:102C700070470F280CD2820022488058002807D0C5
:102C8000214B9A58002A03D0126E002A00D0104718
:102C900070470F280CD282001A488058002807D0AD
:102CA000194B9A58002A03D0526E002A00D01047C0
:102CB00070470F280ED2820012488058002809D091
:102CC000114B9A58002A05D0926E002A04D0002990
:102CD00002D01047002070470020704730B40F2802
:102CE0000DD283000748C058002808D0064CE3588E
:102CF000002B04D0DB6E002B01D030BC184730BC59
:102D0000704700007C95012AB895012AFFFFFFFF5C
:102D100010B50949401808F037F80848016010BCA0
:102D200008BC184710B50449401808F02DF80348AE
:102D3000416010BC08BC1847E7030000F8C3002A34
:102D400010B504490968484307F0C6FF10BC08BC29
:102D500018470000F8C3002A70B50500CB48416849
:102D600001290CD0816B012909D0002134224A436A
:102D70001418E269002A05D0491C0229F6DB70BC50
:102D800008BC1847200000F0A0FA0028F7D0203532
:102D9000BF4800F01DFD687A0028F0D0200000F048
:102DA00094FA0028F4D170BC08BC184710B501296A
:102DB0000FD003290AD1B74C2178012901D1FFF79F
:102DC000CBFFE068002801D007F0D8FF10BC08BC9A
:102DD00018470021C0690C2803D0FF38E13803D11F
:102DE00001E0402100E0AC49AC4A0B0A5068017197
:102DF000437190690171090A417110BC08BC184700
:102E000000218161A3494968002900D00847704723
:102E1000A049896808479E49C860704710B50400FA
:102E2000A068FFF799FF9B492000896807F0A7FF7A
:102E300010BC08BC1847FFB583B00C9D14001E00E1
:102E4000002794480570924A002901D09068C1611A
:102E500093499248416093498161934893494860FE
:102E6000934B94484360944B894A1360C16001209E
:102E700001F022FA864800F083FC864803998160BD
:102E8000002C00D04460002E00D0C660804E01AA05
:102E9000F06802A900F086FE884886607F494A688B
:102EA00092780274864A42610023836101222024C1
:102EB0002254844A4262002D3CD0002082493424AE
:102EC00002006243714C1419A660744A92699278A8
:102ED00022740203521862617C4AA26120221355B7
:102EE0007B4A6262E361401C0006000E0228E6D3C2
:102EF000002F2FD0664800F084FB76480121017234
:102F0000F068002201F089F80122F068110001F058
:102F100084F8F0680022022101F07FF8F0680122B5
:102F2000022101F07AF85A48012100F045F9012DFB
:102F30000DD00FE0684CA6608869807820746361CA
:102F4000A3612020035565486062E361D0E7A06873
:102F5000FFF702FF07B0F0BC08BC4D48184710B59A
:102F60004B4800F03EFC10BC08BC184770B505008B
:102F7000524C6068012805D1454800F029FC606882
:102F80000128F9D0A069411CA16161690D547E2D11
:102F900002D1A069012804D8A069012189038842CF
:102FA00002D3200000F091F970BC08BC184770B53E
:102FB00005000E00414C6068012805D1344800F03E
:102FC00007FC60680128F9D0002D07D1002E05D03C
:102FD00060693200290007F0AFFB00E06561A6617F
:102FE000200000F072F96068012805D1284800F03F
:102FF000EFFB60680128F9D03148606170BC08BC03
:1030000018472E484068012805D02148806B0128C8
:1030100001D00020704701207047F8B506000F006E
:103020002D4C25006868012805D1194800F0D0FB17
:1030300068680128F9D0002E03D1002F01D0666105
:1030400000E06661A761200000F03FF9F8BC08BC11
:10305000002018470021C1617047174A002800D09E
:103060001081002900D051817047002A08D1124AEE
:10307000002801D013890380002901D050890880DD
:1030800070470021C161806866E6000098D6012A79
:1030900094C4002A00C4002A0002000044C4002A8C
:1030A00034C4002A3BC4002A2BC4002A6CC4002A62
:1030B00022C4002A84C4002A10C4002A30D6012A5F
:1030C0003096012A012E002A00D7012A00100000A4
:1030D0001D2E002AB4C4002A64D6012A112E002A0B
:1030E000406803E00068491E0904090C002801D06B
:1030F0000029F7D170474068002806D0426852790D
:103100008A4202D000680028F8D17047C06AC068BF
:103110007047C06AC068C068002806D042689278CC
:103120008A4203D000680028F8D1002070478068E8
:10313000002808D003898B4202D1837A934203D0BE
:1031400000680028F6D1002070470269002A00D0EC
:103150001047704701620421F7E7F0B5060083B01D
:10316000F06843689C788C4220D1D97891421DD177
:10317000C468002C15D0002561688878C2094B7995
:103180000F791B023B436F4628C7C9788B0701079D
:10319000B0689B0FC068090F00F028FD2468002C60
:1031A000EAD103B0F0BC08BC0020184703B0F0BC63
:1031B00008BC0020C0431847F8B504000E000025E5
:1031C000200020300090407A002807D0002E05D043
:1031D000B04203D0681EF8BC08BC1847B0425FD0AC
:1031E000002E25D031002000FFF785FF0700002FBB
:1031F0000DD0F8680022406881783800FFF7ADFFF5
:10320000002809DAF8BC08BC0020C0431847F8BC05
:1032100008BC0020C043184700984672E7620020AF
:1032200060627868007A41002000FFF793FF21E098
:10323000009900204872E06200212000FFF78AFF19
:103240000126E0680022310000F096FEE0680022CE
:10325000310000F03CFDE0680122310000F08CFEFE
:10326000E0680122310000F032FD761C3606360E91
:10327000032EE6D303212000FFF767FFE06800F08C
:1032800089FF002805D0012805D0022804D1FF4D70
:1032900002E0402500E00825280000F084FF10E04F
:1032A000E06800F077FF002805D0012805D002284B
:1032B00004D1F64D02E0402500E00825280000F08A
:1032C00072FFF8BC08BC0020184710B5F049016037
:1032D00000214160C1618168002908D0CA68C260CC
:1032E0002031497A002908D1017C090705D0032142
:1032F000416010BC08BC081F184700F0F4FD10BC6A
:1033000008BC184770B506001D00E24C3000343090
:10331000002900D134304168012904D0426185611F
:10332000FFF7D3FF0400201E00DB280070BC08BCA0
:10333000184702000B0030320121E3E7F8B507001F
:103340000E00B01C0025D34C4178012904D002297D
:1033500005D003291BD10EE03D682C7817E00178D9
:103360003800FFF7BDFE002811D04568E878A9783D
:1033700004020C430BE0027870793379010219439F
:103380003800FFF7D4FE002801D045682C78002DC6
:103390000FD0F079B17900020843A04200DA0400AE
:1033A00023002A0001213800FFF7ACFFF8BC08BC5D
:1033B00018472000F8BC08BC184710B54A780A2AFC
:1033C0004AD213007B441B79DB189F44044D454DC2
:1033D0004512264D2B3ACA798B79110219430229DD
:1033E00042D3002101860221FFF7A3FF10BC08BCD5
:1033F0001847CA78897813020B43010020310A006C
:10340000497A002930D11906090E1172C06800F0FE
:1034100088FB10BC08BC00201847FFF78FFF10BCCA
:1034200008BC1847CA798B79110219431CD00100D6
:1034300020314A7A0A740121FFF77BFF10BC08BCD7
:103440001847CA788B78110219430906090EFFF74D
:10345000B3FE10BC08BC18474269002A04D007F02C
:103460008FFC10BC08BC184710BC08BC0020C0432F
:10347000184770B505000C006079227901021143EC
:103480002800FFF743FE617803294AD004DC0029B5
:1034900011D0012904D144E00A291DD00B292CD0D8
:1034A00000283ED00269002A3BD0210007F068FCCA
:1034B00070BC08BC1847002833D0E079A17900021D
:1034C000084302282DD30020288602212800FFF778
:1034D00030FF70BC08BC1847002822D0E179A279DF
:1034E000090211431DD0017D3020415501212800E2
:1034F000FFF71FFF70BC08BC1847E86A002810D00F
:10350000E178A2782379090211430A066179120E43
:10351000090219430906090EFFF71FFE70BC08BC1B
:10352000184770BC08BC0020C043184710B54B6852
:103530009B781C07240FDB090A61002A05D0C068AC
:103540001A00210000F0FAFA04E0C0681A00210015
:1035500000F00CFB10BC08BC0020184770B505003B
:103560000C0060792279010211432800FFF7D1FD98
:103570000023DB43002811D06178002912D00129F3
:1035800021D003292CD00C292FD0C268002A2CD09E
:10359000210007F0F5FB70BC08BC184770BC180090
:1035A00008BC1847E179A2790902114302291CD30A
:1035B0000069C007C00F288602212800FFF7B9FE66
:1035C00070BC08BC1847E178A278090211430CD1FD
:1035D000010000222800FFF7A9FF70BC08BC1847B3
:1035E000E178A2780902114303D070BC180008BC2E
:1035F0001847010001222800FFF798FF70BC08BCA3
:10360000184770B50400E06801F09CFD0600A06951
:103610000025B04222D0E561002E16D065626421FB
:103620002000FFF797FDE06801F09CFD002804D022
:1036300019492000FFF78EFD0BE000212000FFF765
:1036400089FDE06801F093FD03E000212000FFF711
:1036500081FDA66100212000FFF777FDE06800F002
:1036600099FD002824D0012824D0022824D000204D
:10367000E169814205D06562E06101212000FFF728
:1036800064FDE06800F092FD050007E00002000024
:1036900051555242FFFFFFFFDC050000606AA8425F
:1036A0001FD0002D0AD000212000FFF753FD13E0AA
:1036B0000C20DDE70120DBE75D48D9E7E06A002860
:1036C00006D04068007A41002000FFF743FD03E088
:1036D00000212000FFF73EFD656205212000FFF775
:1036E00034FD70BC08BC184710B504002000FFF77B
:1036F00088FF00212000FFF75FFD002128200155F1
:10370000E06800F00EFA0320E066A06310BC08BC7D
:10371000184710B50400474B0878C006C00E04D007
:10372000012807D002280ED109E02000FFF745FE4E
:10373000030008E02000FFF79CFE030003E02000E8
:10374000FFF70CFF0300002B09DD220004233032B9
:1037500000212000FFF7D6FD10BC08BC1847002B45
:1037600007D00022E068110000F0E8F910BC08BCA6
:10377000184700212000FFF7DCFD10BC08BC1847EB
:1037800070B504000025A561E561200020300572B8
:10379000E562457200212000FFF7DCFCE463802134
:1037A00044200155A5650320A063246778210D55A9
:1037B0008C210D51E066204AE068210000F07EF87F
:1037C000E0680122002100F089FC70BC08BC1847A9
:1037D00010B5002802D0C06800F079F910BC08BC10
:1037E000184710B50400A06B012805D12000FFF791
:1037F000EFFFA06B0128F9D000212000FFF7DCFCCF
:10380000E06800F043FC0020A061E06120342072F9
:1038100010BC08BC184710B504002000FFF7D8FF03
:103820002034607A002800D0012010BC08BC184762
:10383000E0010000FFFFFFFF60C5002AFB48407861
:103840007047F8B5FF21FA48813107F003F8C3212A
:10385000F848890106F0FEFF002501220021F44B03
:10386000E801C718A801F34B28188001C618880181
:10387000081840013318880138188360002044017B
:103880001A51401C4028FADB491C0229EFDB6D1C51
:10389000032DE3DBE849E648016001640168E74A7B
:1038A00011430160FF21813101F0A5FCC321E148F2
:1038B000890101F0A0FCF8BC08BC1847F8B5060067
:1038C0000027DA4882600C207043DD4A801881604E
:1038D000300001F058FC032001F0CBFE300001F075
:1038E0005FFCD84DB4002859FF308130816A8908C7
:1038F0008900891C81623000FFF7A3FF2859CC4959
:10390000FF304130816128590021FF304130816012
:103910002859FF308130836A082213438362285973
:10392000FF308130C162285980308261FFF786FF05
:10393000012806D12859FF30413001680122114386
:1039400001603800F8BC08BC1847F8B50700BD4D49
:10395000BC0028590121FF308130C1622959FF3153
:103960008131C86AC007C00F0028FAD1B6480126C5
:10397000760300902859FF304130016831430160DF
:103980000098082101F031FCA949A848283106C94E
:10399000143006C02859FF304130006830400028FC
:1039A000E8D02859FF3041300168B14301600C2054
:1039B0004743A348381880689C4989684A68A349E6
:1039C00007F0DEF9F8BC08BC1847F0B585B08100F7
:1039D0009C484058FF308130C16B00910099C16311
:1039E00000200190002601989149C00140180490E0
:1039F0000198810140188F49800140180390019877
:103A00003101091801208840009901422FD0049803
:103A1000B1014018402101F0E8FBB1010398711891
:103A2000490144180294002500272021200001F0BC
:103A3000DCFB6068000CC719002D02D16068050628
:103A40002D0E2068012801D0246800E00024002CFD
:103A5000EBD10298C469A069C11BE161606901F002
:103A6000C4FB002D14D0802D1BD003206060761C79
:103A70003606360E012EC2D90198401C0006000EF3
:103A8000019001980328ADD305B0F0BC08BC1847DD
:103A900002206060616A0029E9D0200007F06FF918
:103AA000E5E701206060E2E70C21484364494018E3
:103AB00080685E49896889680847F5E70C214843B2
:103AC0005F4940188068594989680968084770B596
:103AD00005005C48A90041580800FF3141314C689D
:103AE0000A00FF308130C66A5460600602D52800A3
:103AF000FFF7E4FFE00502D52800FFF7DEFF6007CF
:103B000002D52800FFF7D0FFE00702D02800FFF71A
:103B10005CFFF00702D02800FFF717FF70BC08BC5D
:103B2000184701234A061B06D218464B8000185836
:103B3000FF30413042613D480170704710B40300CE
:103B40000020002903D0002A03D0414A02E0414A64
:103B500000E001229C003B4B89001B59FF31C13121
:103B60005C58944314435C5010BC704730B404005C
:103B700000200023002904D0002A04D0364A2E4B0E
:103B800003E0344A01E041224023A5002D4C890086
:103B90006459FF31C1316558134095431D43655049
:103BA00030BC704710B40023204CA478002C01D006
:103BB0002A4805E083002348C058803003688068A5
:103BC0000B60106010BC704700B582B000210191FD
:103BD00000916A4601A9FFF7E5FF204A00990120FC
:103BE000914200D0002002B008BC1847F8B505008B
:103BF0000C0016001F0000200090002C09D0032CA0
:103C000003D2022E01D2022D07D3F8BC08BC032038
:103C10001847F8BC08BC00201847012E20D0280007
:103C2000FFF7D2FF00282BD000202AE06CC5002A25
:103C300000F8012A80F9012A0000400000800000FD
:103C4000402E022A40C6002A28F8012A80C5002AF0
:103C5000000001000100010000004100EFCDAB00B9
:103C60002800FFF7B1FF002801D0002001E001206B
:103C70008005B90440180121C9054118F94804E03C
:103C80004020B90041188031F748069AE301170433
:103C9000F64A9B18B2019F50079E01277F07012E0D
:103CA00011D09E583E439E50F14AAB00D358A2001B
:103CB000FF32C1329C58014084430C439C50009811
:103CC000F8BC08BC18479E58BE439E50ECE770B441
:103CD0000024032903D2022A01D2022801D303249B
:103CE00013E0E24ECD010023AD199601AB5100293E
:103CF0000BD0012A0CD080228300DD48C3588800F5
:103D0000FF30C130195891431950200070BC7047E2
:103D1000D84AF1E7D848C0687047F0B583B08C4600
:103D20000193D64D8401D74900198001401861469E
:103D30008C010919D24F4901461802906D1C0120CF
:103D40008003834200D218006901741800212160A9
:103D5000A160E16021616161A161E16101048031E3
:103D60006160002D03DD691E490171180C60A260BD
:103D7000A168090B0903E160E168C919E160E16824
:103D8000C91921612169C91961616169C919A161F3
:103D90001B1A1218002B01D03F2DCFDB08980028EA
:103DA0002CD06046012829D1FFF7B4FF010001980B
:103DB00006F05EFF002921D1019800281ED0681C62
:103DC0001CD06D1C029941204001091868010C1893
:103DD00000202060A060E06020616061A061E0617F
:103DE00080206060002D03DD6D1E680108180460EE
:103DF000A548A060E06020616061A06101202060B2
:103E000060680121C9030843606003B0F0BC08BCCE
:103E10001847FFB5050083B00D980C0016000699F1
:103E20008C46924AE1018918B2018F1831010A19B2
:103E30000121914002918E4BAD00002C0CD15959BB
:103E4000FF318131C96AC907C90F002904D007B001
:103E5000F0BC08BC052018470C99012212059142BC
:103E600004D907B0F0BC08BC032018478049495961
:103E7000FF318131896B029A1140002904D007B0CB
:103E8000F0BC08BC0720184700900C9B31002000B4
:103E90006246FFF742FFA001201881017948081807
:103EA000B101711849014618BE600020F8600C99F4
:103EB000069801F0A0F9002460013018202101F0DB
:103EC0009AF9641C412CF7D34021380001F093F992
:103ED000674902984959FF318131086307B0F0BC46
:103EE00008BC00201847F0B583B00400E768207CC8
:103EF00005072D0FC60960698446A2692020035D6D
:103F0000032D04D303B0F0BC08BC03201847584964
:103F1000B8000958A800FF30C13009580120C00579
:103F2000012E00D0802001420FD068460CC0320024
:103F3000290038006346FFF76CFF00280AD00321F0
:103F4000616003B0F0BC08BC184703B0F0BC08BC0B
:103F500007201847012161600021E161A901494A58
:103F6000691889018918B201B21852018918CC6107
:103F700003B0F0BC08BC1847F7B50F0082B0049935
:103F800001240901C9198C40860039488059FF3045
:103F90008130806B204001900198002838D033494F
:103FA000F8014118049880010818402101F01DF91A
:103FB0000025B8013349381880014118049882015E
:103FC000801840010F1868013818202101F00DF900
:103FD0006D1C412DF7D3F869019900290FD0244BAE
:103FE0009959FF3181314C639959FF3181314A6BC5
:103FF0002240002AFBD1896B21400029F0D1002802
:1040000006D003214160416A002901D006F0B7FEC5
:1040100005B0F0BC08BC0020184710B412015218BB
:1040200001219140124C8300E058FF308130806BB9
:10403000084000280ED0E058FF3081304163E0583E
:10404000FF308130426B0A40002AFBD1806B084070
:104050000028F0D1E058FF308130C16BC16310BC43
:10406000002070470000FFFFFFFF000000F8012A5A
:1040700040C6002A000080006CC5002AFFFFFFFF39
:104080000010000080F9012A7CC5002A70B50500E7
:1040900000260024220031002800FFF76DFF641C79
:1040A0002406240E022CF5D3761C3606360E032E7B
:1040B000EFD300260024220031002800FFF707FE7E
:1040C000641C2406240E022CF5D3761C3606360E0C
:1040D000032EEFD370BC08BC00201847F0B40025B5
:1040E000022901D2022802D3F0BC03207047814C80
:1040F000635C002B02D0F0BC062070477E4B002A88
:1041000000D07E4B7E4E7F4A800000290AD017588F
:104110008037BE6010588030C36001206054280092
:10412000F0BC7047175880373E60105880304360AD
:10413000F3E7022901D2022801D30320704782004D
:10414000704B0020002905D09A588032D060694A0F
:10415000505470479A5880325060F8E70022022984
:1041600001D2022801D303207047664B800000294A
:1041700002D0012906D00AE01858803040680202B7
:10418000120A04E018588030C0680202120A5C4823
:10419000801A70475B4980000858FF3081304068C2
:1041A0000001800F70475849C8607047554980002A
:1041B0000858FF308130406880210840002800D036
:1041C00001200006000E70474E4980000858FF305D
:1041D000813040680005800F704781004948405891
:1041E000FF30413001680122114301607047F8B58A
:1041F00000250024454E0904891987004148C25909
:10420000FF324132116309E03E49C959FF31413162
:104210000D6B2E000640012001F02BFA01208007D3
:10422000864205D12100FF22641CF5329142EBD376
:104230002804F8BC08BC000E1847FFB517001E0084
:1042400081B00024314DFF2E09D001A803C8FFF72B
:10425000CEFF0006000EB0433E40064300E03E00A5
:1042600002980321000480194907401801998E0023
:1042700024498A59FF32413210632F0008E0214857
:104280008059FF304130056B3D40012001F0F1F9CC
:10429000BD4205D12000FF21641CF5318842EED3D8
:1042A00005B0F0BC08BC184710B501F09FF810BC71
:1042B00008BC0006000E184713494870704770B5D7
:1042C00006000C00150000213000FFF732FF01212D
:1042D0003000FFF72EFF0B4AB000115880310C6000
:1042E00010588030856070BC08BC1847064988703B
:1042F000704700006FC5002A000000C0000000C128
:10430000FFFFFF0040C6002A6CC5002A00000040E5
:1043100010B50006000E01F05FFA10BC08BC18478B
:1043200010B50022F121B520FFF7F2FF002800228E
:10433000E821B520FFF7ECFF00280022E921B52095
:10434000FFF7E6FF00280022BF21B520FFF7E0FFBE
:1043500000280022C521B520FFF7DAFF0028FF2141
:1043600000220831B520FFF7D3FF0028FF210022EB
:104370000931B520FFF7CCFF0028FF2100221731BB
:10438000B520FFF7C5FF002800220221B520FFF766
:10439000BFFF10BC08BC002818470000F0B5FFB0F4
:1043A00082B005000024FA4F0123786800216A4694
:1043B00000F0D4FC002805D000207FB002B0F0BC93
:1043C00008BC184770AB9878DA79997912021143D2
:1043D0001A7A5B7A12041B061A431143A84201D1D0
:1043E0000800EAE770AB987CDA7D997D12021143F0
:1043F0001A7E5B7E12041B061A431143A84201D1A8
:104400000800DAE778AB9878DA79997912021143E3
:104410001A7A5B7A12041B061A431143A84201D18F
:104420000800CAE778AB997CDA7D987D12021043C8
:104430001A7E5B7E12041B061A431043A942BCD0AD
:104440000600052901D00020B7E77868A1190123EB
:104450006A4600F083FC002801D00020ADE770AB75
:104460009978DA799879120210431A7A5B7A1204F1
:104470001B061A43104332191018A9429DD070AA86
:10448000907CD17D947D09020C43117E527E0904FB
:10449000120611430C430528D7D000208DE7704742
:1044A000BCA07047F0B50022BC4940230C00491065
:1044B0005B00C829FBDC6343551C81540A126C1C49
:1044C00042550022002917DD1D042D0EAE461D02A7
:1044D0001E062D0E360E1F0EAC462300641CC6545D
:1044E0007546631C055565465C1CC5542300641C59
:1044F000C754521C8A42F0DB2000F0BC08BC1847AD
:10450000002070470020704710B50400FDF768F8E0
:10451000042C03D010BC08BC0720184710BC08BCF2
:104520000020184770B50025994C6068002803D01A
:1045300070BC08BC00201847FDF752F80021280085
:1045400000F0BBFA606000280CD0FDF749F8606805
:1045500000F0B0FD162809D000280CD070BC08BCB3
:104560000720184770BC08BC072018470020A0602F
:1045700070BC08BC1847FDF733F80121280000F093
:104580009CFAA060FDF72CF80221280000F095FAB3
:10459000E060FDF725F80421280000F08EFA206184
:1045A000FDF71EF80521280000F087FA6061FDF78D
:1045B00017F80621280000F080FAA061FDF710F836
:1045C0000721280000F079FAE06170BC08BC0020E7
:1045D000184770B50D001400FFF7A4FF072801D09D
:1045E000002004E070BC08BC07201847401CA04213
:1045F000FCD3AD1E272D71D2280078440079001815
:10460000874413171B47509D9D544C58645C602190
:104610004125686D9D9D9D9D9D9D9D9D9D9D9D9D03
:104620009D71767C9D82888E940059490720087080
:1046300081E05749072008707DE05548012101704D
:104640000021016277E052490720087073E0504C66
:10465000002020700B20FFF7A1FE002801D020626F
:1046600069E00C20FFF79AFE002801D0206262E08A
:104670000E20FFF793FE002801D020625BE070BCA3
:1046800008BC07201847424801210170002101623F
:1046900051E03F490020087008624CE03C49072087
:1046A000087048E03A490720087044E0384907207C
:1046B000087040E03649072008703CE03449072084
:1046C000087038E032490720087034E0304907208C
:1046D000087030E02E49072008702CE02FE02C49AC
:1046E0000720087027E02A4800210170016222E0BB
:1046F000274801210170002101621CE024480221A9
:1047000001700021016216E021480321017000219F
:10471000016210E01E4804210170002101620AE0DC
:104720001B48052101700021016204E018480621A0
:1047300001700021016270BC08BC0020184770BCE9
:1047400008BC072018470020704700207047F8B5C4
:1047500005000E0017000E48027801008968072A3C
:1047600008D213007B441B79DB189F441B07090BFD
:104770000D0F1900F8BC08BC002018470C0012E00F
:10478000C46810E004690EE044690CE084690AE042
:1047900088C5002A654D4D43000000000008000058
:1047A000C46900E04468002C02D0012A04D027E04C
:1047B000F8BC08BC07201847002E21D1FF20BF30CD
:1047C000405D012280280ED02800FF30C130837B5D
:1047D000802B08D0807F802805D0FF20EF30405DFF
:1047E000802800D00022002A0AD0002908D0080022
:1047F00000F060FC002803D0F8BC08BC0720184774
:10480000A0484178012900D0760A006A3618FCF7E2
:10481000E7FE790AF80501D0012000E000200B181E
:104820002A003100200000F0F7FA002803D0F8BC7D
:1048300008BC07201847F8BC08BC00201847072010
:10484000704770B5060090B08E4D2878072808D2C2
:1048500001007944097949188F4414080A0C0E1094
:10486000120010B070BC08BC00201847AC680AE009
:10487000EC6808E02C6906E06C6904E0AC6902E0D1
:10488000EC6900E06C68002C0CD0FCF7A9FE20005D
:10489000694600F0A5F9002809D010B070BC08BC2A
:1048A0000720184710B070BC08BC072018472878AC
:1048B000002811D001214902300005F0A9FF012391
:1048C00032000021200000F0A7FA00280BD010B021
:1048D00070BC08BC07201847019A0021521E200016
:1048E00000F05FFB0DE001990123491E320020001A
:1048F00000F092FA002804D010B070BC08BC072069
:104900001847002804D010B070BC08BC0720184716
:1049100010B070BC08BC0020184710B55948017889
:10492000072908D20A007A4412799218974413078B
:10493000090B0D0F110010BC08BC07201847846834
:104940000AE0C46808E0046906E0446904E0846998
:1049500002E0C46900E04468002C0AD0FCF740FE85
:10496000200000F0A7FB002807D010BC08BC0720DF
:10497000184710BC08BC0720184710BC08BC002012
:104980001847F8B506000D0017003E4801780729C2
:1049900008D20A007A441279921897441307090B37
:1049A0000D0F1100F8BC08BC0720184784680AE006
:1049B000C46808E0046906E0446904E0846902E030
:1049C000C46900E04468002C0ED0FCF709FE2B04FB
:1049D0001B0C3A003100200000F01EFA002807D01E
:1049E000F8BC08BC07201847F8BC08BC07201847CB
:1049F000F8BC08BC002018470720704770B590B07D
:104A000006000D001F480178072908D20A007A44E1
:104A100012799218974414080A0C0E10120010B064
:104A200070BC08BC0020184784680AE0C46808E02D
:104A3000046906E0446904E0846902E0C46900E0B6
:104A40004468002C0CD0FCF7CBFD2000694600F038
:104A5000C7F8002809D010B070BC08BC0720184760
:104A600010B070BC08BC07201847402230006946CF
:104A7000FCF7D8FD28684030286010B070BC08BC36
:104A80000020184788C5002A10B502F0C1FF10BCED
:104A900008BC184731B500240099002909D00868DE
:104AA000002806D0684604F0BBFE200038BC08BCD5
:104AB000184738BC08BC14201847F3B5060081B06D
:104AC00000250095042E04DB03B0F0BC08BC0020D8
:104AD0001847300003F044FC002807D0029803F088
:104AE000F2FB009003B0F0BC08BC1847300003F0A4
:104AF00002FE00282DD0300003F044FC07003C00EB
:104B00000C340299300004F064FE0100009000298A
:104B100024D0207A04282AD0012857D0052855D03F
:104B2000022853D0062851D0080002F097FF2072C7
:104B30002076207A00281ED0042821D0200003F0FF
:104B400054F8002820D020610098FFF7A3FF0095BB
:104B50003CE003B0F0BC08BC00201847200004F083
:104B60007BFE002832D1200003F064FE2EE0684670
:104B700004F056FE2AE00098FFF78CFF009525E030
:104B8000684604F04DFE21E0FF48B10040584168FE
:104B90000122120311434160200003F043FF00286B
:104BA00005D020610098FFF775FF00950EE0012108
:104BB000200003F0F0FB200003F07AF800280AD070
:104BC000206125720098FFF765FF0095009803B0FB
:104BD000F0BC08BC18470220607280373D77F5E7CB
:104BE000F0B585B006000C00002003900021019173
:104BF0000091002E0AD03568002D07D028680428BF
:104C000009D305B0F0BC08BC1420184705B0F0BCAF
:104C100008BC14201847002C05D0002020607068C4
:104C2000411C05D005E005B0F0BC08BC14201847B5
:104C300000200290287A00280BD02070686AE0607B
:104C40003068006804F0C0FFC00705D0012020765E
:104C500004E01520039031E000202076287A270018
:104C60002037022833D0062831D00298002842D0BD
:104C700016200390002060606020405D20740020BA
:104C80006061387100982062686BE061E88FE084B1
:104C90002800403004900088208529002000072249
:104CA00042312A3005F048FD0498407A7874E86C67
:104CB00060630498103003C8E163A06321003000F2
:104CC00003F03CFF039805B0F0BC08BC1847300067
:104CD0006A4601A904F0BAFB039001986060602065
:104CE000405D2074E86A6061300004F02BFC38718C
:104CF000286AA060C6E7E8696060BDE710B50028D3
:104D000009D00468002C06D02068042807D310BC02
:104D100008BC0020184710BC08BC002018478C2095
:104D200000598030007F00280BD1207A002808D05D
:104D3000200003F019FC092807D010BC08BC012092
:104D4000184710BC08BC002018470020207210BC77
:104D500008BC18470020704700207047F0B50D00D0
:104D600017001E008BB000280AD00468002C07D062
:104D70002168042909D30BB0F0BC08BC14201847E3
:104D80000BB0F0BC08BC142018478C2109598031A5
:104D9000097F002904D00BB0F0BC08BC1B201847C9
:104DA000217A00290CD001290FD005290DD0022924
:104DB0000BD0062909D010200BB0F0BC08BC184756
:104DC00015200BB0F0BC08BC184703F0E9F8002828
:104DD000F7D101221000012E00D10020122100285D
:104DE00000D1112102916846027400200990207AB6
:104DF00005280FD006280DD0606A684303903B0059
:104E00000222200002A9009603F005F90BB0F0BCC5
:104E100008BC18470395F2E7F0B50D0017001E0017
:104E20008BB000280AD00468002C07D02168042920
:104E300009D30BB0F0BC08BC142018470BB0F0BC71
:104E400008BC142018478C2109598031097F00299A
:104E500004D00BB0F0BC08BC1B201847217A0029F5
:104E60000CD001290FD005290DD002290BD006291D
:104E700009D010200BB0F0BC08BC184715200BB0AF
:104E8000F0BC08BC184703F08BF80028F7D10122CA
:104E90001000012E00D100201921002800D1182176
:104EA00002916846027400200990207A05280FD0EC
:104EB00006280DD0606A684303903B000022200062
:104EC00002A9009603F0A7F80BB0F0BC08BC184785
:104ED0000395F2E701207047002807D004210180E4
:104EE0002A4941808021416000207047142070478A
:104EF00070B50D000024042803DB70BC08BC002042
:104F0000184704F061FEC10702D0012D00D1012431
:104F1000800700D50124200070BC08BC1847012080
:104F20007047F0B50E0089B00827042804DB09B0EB
:104F3000F0BC08BC1420184703F024FA05000C3517
:104F400001240020019002900390049005900690A7
:104F5000079008900D20009001206946087268892A
:104F600000040190280003F089FB0398C004000F9F
:104F70000399C905C90F864201D101290FD020002C
:104F8000641C0F21090303E09834022A0002000088
:104F90008842D6D3380009B0F0BC08BC18470027B7
:104FA000F8E7F0B589B003000C001600002B0AD01A
:104FB0001D68002D07D02868042809D309B0F0BC6B
:104FC00008BC1420184709B0F0BC08BC14201847CE
:104FD000287A062806D0022804D0162009B0F0BC92
:104FE00008BC1847180002F0DBFF0028F6D10120AA
:104FF0006946087200270797019423200090280033
:1050000003F03CFB0028E9D1287A062818D0761E48
:10501000700200190190242000902800694603F0D6
:105020002DFB0028DAD1012007900197262000905F
:105030002800694603F022FB3F49002804D007E01E
:10504000A019401E0190E6E7039A0A4200D00F2003
:105050000728C3D10398084204D009B0F0BC08BCAB
:105060000F201847280003F099FA0728FAD009B052
:10507000F0BC08BC184710B5002809D0006800280B
:1050800006D00168042907D310BC08BC14201847B7
:1050900010BC08BC14201847017A062903D010BCA4
:1050A00008BC16201847254903F0B5FE10BC08BC03
:1050B0000028184710B5002809D00168002906D03B
:1050C0000A68042A07D310BC08BC1420184710BC77
:1050D00008BC14201847097A022905D0062903D0F4
:1050E00010BC08BC1620184704F046FA10BC08BCD7
:1050F00018471620704700280CD08178022901D06B
:10510000062907D10022825E0D490A6082780A7161
:105110008088C88070471620704710B5002807D0D7
:105120000268002A04D004F05CFA10BC08BC1847DE
:1051300010BC08BC142018470080FFFD0001A2032A
:1051400034C6002AF84980000858FF308130406892
:10515000C007C00F002800D00120F4490006000E4F
:105160004870704700207047F04800787047EF4A59
:10517000012111708200EC488058FF3041300268F4
:105180000A4302607047E94A002111708100101D36
:105190004058FF30413001684908490001607047BC
:1051A00010B50400E24A02211171002000F044FA17
:1051B000012000F041FA012000F047FA012000F040
:1051C00058FA012000F04BFA012000F052FAD64ABA
:1051D000A00010580121C907FF3081304160012033
:1051E00000F032FA10BC08BC184710B500F057FAAE
:1051F00010BC08BC184710B500F050FA10BC08BC31
:10520000184710B50400FF23002284212000FFF777
:1052100014F8FF23002287212000FFF70EF86420F6
:1052200000F036FA10BC08BC184710B50400FF2384
:10523000002291212000FFF700F8FF230022932194
:105240002000FEF7FAFF642000F022FA10BC08BC30
:10525000184710B5002909D0012904D118230822C4
:105260000421FEF7EAFF10BC08BC184718230022EF
:105270000421FEF7E2FF10BC08BC1847704781000C
:10528000A9484058FF308130416A20229143416251
:1052900070478100A4484058FF308130416A202285
:1052A00091434162704710B504002000FFF7A9FF49
:1052B0002000FFF7BAFF10231A0084212000FEF718
:1052C000BCFF20231A0084212000FEF7B6FF0A202D
:1052D00000F0CFF910BC08BC184710B5040010232B
:1052E000002284212000FEF7A8FF20230022842131
:1052F0002000FEF7A2FF0A2000F0BBF910BC08BC9A
:10530000184710B504002000FFF77BFF2000FFF7CF
:105310008CFF02231A0084212000FEF78EFF012358
:105320001A0084212000FEF788FF20231A00842120
:105330002000FEF782FF322000F09BF910BC08BC71
:10534000184710B504002000FFF75BFF2000FFF7AF
:105350006CFF0223002284212000FEF76EFF012350
:10536000002284212000FEF768FF322000F081F93E
:1053700010BC08BC184710B504002000FFF741FF1F
:105380002000FFF752FF08231A0084212000FEF7B7
:1053900054FF02231A0084212000FEF74EFF012350
:1053A0001A0084212000FEF748FF322000F061F946
:1053B00010BC08BC184710B58721FEF718FF8007FE
:1053C000C00F10BC08BC184710B58721FEF70FFFAF
:1053D000C007C00F10BC08BC184710B58721FEF7E6
:1053E00006FFC006400F10BC08BC1847F1B582B0DC
:1053F0000020009001240825F5E0132C7DD2200028
:105400007844007900188744EC0915ECEC3F679765
:10541000A8C2C5C8CBCED1D4D7DAEE0002980121FC
:10542000FFF717FF0298FFF734FF0298FFF73BFFE3
:105430000224D8E000260298FFF7BDFF07063F0EC2
:105440000298FFF7CAFF0190012F02D001980028AF
:105450000BD00A2000F00DF9012F04D0019800288C
:1054600003D0082409E0052407E0962000F001F9A4
:10547000761C3606360E062EDDD1022C00D106240F
:105480000298FFF72AFFAEE00298FFF73AFF029872
:10549000FFF79AFF0606360E0298FFF79EFF0400FC
:1054A0000298FFF74EFF0298FEF78EFE310021436F
:1054B00002D0012E06D007E0002801D0072492E098
:1054C000092490E0002C03D0002C03D008248AE0AB
:1054D000072488E0102486E00298FFF712FF029864
:1054E000FFF772FF0606360E0298FFF776FF0400FC
:1054F0000298FFF726FF029800E072E0FEF764FED4
:105500003100214302D0012E06D007E0002801D04F
:10551000072468E0092466E0002C03D0002C09D0A1
:10552000082460E007245EE040C6002A3CC6002A4A
:10553000402E022A102456E00298FFF71CFF029822
:10554000FFF742FF0006000E002802D001284AD1D2
:1055500001E00A2447E00B2445E00298FFF734FFFE
:105560000406240E0298FFF738FF022805D003280E
:1055700009D0042809D0102435E0012C01D00D24D5
:1055800031E00C242FE00E242DE00F242BE0002529
:10559000112428E00125112425E00225112422E010
:1055A000032511241FE0042511241CE005251124E6
:1055B00019E00625112416E00725112413E00298AE
:1055C000FFF71FFE0298FFF730FE02980021FFF759
:1055D00040FE0298FFF753FE0298FEF7FEFD1224EC
:1055E00001E007251124122C06D000980099401CD8
:1055F0006429009000D200E7009864280DD30725A5
:105600000298FFF7FEFD0298FFF70FFE02980021B7
:10561000FFF71FFE0298FFF732FE280003B0F0BC30
:1056200008BC18470148024908627047040100009D
:10563000C014800001207047002804D0012802D146
:1056400017481849C86070477047002801D00128E2
:1056500004D11448016901221143016170470028F7
:1056600001D0012804D10F480169490849000161AE
:10567000704770B505000024002D06D90A4E300091
:10568000FDF75EFB641CAC42F9D370BC08BC184744
:1056900010B5FDF755FB10BC08BC184770477047A4
:1056A000000A000000299000E8030000FFB583B065
:1056B0000CAC30CC109A002601200290FF2C01D1B6
:1056C00000270297002901D0012900D105937027F6
:1056D0002F40002A04D0012A53D0032A55D14CE090
:1056E000002902D0012951D11EE00298002812D0D1
:1056F0000599039801AAFAF7C1FE012810D168465E
:105700000079A0432A0022400243019205990398A0
:10571000FAF790FE04E0059903982A00FAF78AFE4A
:10572000012833D0012631E0E143090716D005995D
:1057300003983A00FAF77EFE012810D105990398E4
:1057400001AAFAF79BFE2107090F6A4612798A43DC
:10575000F023194329401143019100E001950128EC
:1057600007D1684602798020059902430398FAF729
:1057700061FE01280AD0012608E01800FBF7F2FBC1
:1057800004E0002907D0012905D02126300007B008
:10579000F0BC08BC1847012904D1059903983A00C8
:1057A000FAF748FE012805D10097059903986A4643
:1057B000FAF764FE012809D10299012903D16A464A
:1057C000117821400091694609788D42012801D065
:1057D0000126DBE70026D9E7F0B587B0F827A02639
:1057E0000025FF24012806D0B5287ED0232007B04D
:1057F000F0BC08BC1847012907D0FF390A3975D019
:10580000222007B0F0BC08BC1847002006A9FBF70F
:105810004CFC012005A9FBF748FCF52001A921C19A
:105820000022FF23D133110010000395049500944A
:10583000FFF73CFF0028E4D1A82001A921C10022E4
:10584000DE2311001000039504950094FFF72EFF4E
:105850000028D6D1069804280DD8AC2001A921C172
:105860000022FF4B01211000039504950094FFF7DF
:105870001DFF0028C5D1069804280DD9A42001A930
:1058800021C10022F64B01211000039504950094DC
:10589000FFF70CFF0028B4D1642001A921C1002228
:1058A000FF231A3311001000039504950094FFF7AD
:1058B000FDFE0028A5D100221C2311001000029536
:1058C0000395019704950094FFF7F0FE002898D106
:1058D0006F4602950395002250C74323DB00110059
:1058E00010000495FFF7E2FE01E025E10FE100283A
:1058F00087D1022001A921C10620002200904F2358
:105900001100100003950495FFF7D0FE002892D1F6
:10591000B82001A921C10022DF2301211000039535
:1059200004950094FFF7C2FE002884D1442001A909
:1059300021C10022FF238F3311001000039504952D
:105940000094FFF7B3FE002894D1952001A921C14E
:10595000002289239B0011001000039504950094F8
:10596000FFF7A4FE002885D1C62001A921C100228D
:10597000C82311001000039504950094FFF796FECC
:10598000002888D1032703A901950295A0C1002210
:105990001923022110000095FFF788FE002889D105
:1059A0000022FF23A13311001000029503950196F8
:1059B00004950094FFF77AFE002888D10022FF2387
:1059C000A2331100100002950395019604950094EE
:1059D000FFF76CFE00288BD10022FF2393331100C8
:1059E000100002950395019604950094FFF75EFE62
:1059F00000288CD10022FF2394331100100002955F
:105A00000395019604950094FFF750FE00288CD171
:105A10000022FF239A33110010000295039501968E
:105A200004950094FFF742FE00288DD10022FF2349
:105A30009B33110010000295039501960495009484
:105A4000FFF734FE00288ED1102001A921C10022C9
:105A5000822311001000039504950094FFF726FEA1
:105A600000288ED10022FB01110010000295039541
:105A7000019604950094FFF719FE00288FD10022AB
:105A8000FF238233110010000295039501960495BF
:105A90000094FFF70BFE00288FD100228123110014
:105AA000100002950395019604950094FFF7FEFD02
:105AB000002890D1A12001A921C10022802311003A
:105AC0001000039504950094FFF7F0FD002890D195
:105AD000022001A921C10620002200904F231100BD
